:100000000C9481060C94A9060C94A9060C94701EFD
:100010000C94701E0C94701E0C94A9060C94A906E6
:100020000C94A9060C94A9060C94A9060C94A90694
:100030000C94A9060C94491E0C94A9060C94A906CC
:100040000C94E01C0C94A9060C94AE1C0C94881C17
:100050000C94A9060C94A9060C94A9060C94A90664
:100060000C942A1D0C94A90604001600110005002A
:10007000120000000B001A001E0009000000000022
:1000800006001800070017000D001D0019001000E1
:100090000A00010015001C000C0003000E000F00F8
:1000A00000000000000013000000180013000E0004
:1000B0001200100016000B0005000C001A001E00B4
:1000C00009000700060003000D001D000A001400CF
:1000D00001001C000F00190017001500110000009E
:1000E00000000000000000000000000000009C1F55
:1000F0000000000000000000000000000000000000
:1001000000000000000000000000000000003003BC
:10011000FC0F3003FC0F30030000000000008C07D0
:10012000CC0CFE1FCC0C780C00000000000000007E
:1001300000000000000000000000000000000000BF
:1001400000000000000000000000000000000000AF
:100150000000000000000000000000000000E001BE
:1001600038070E1C000000000000000000000E1CFC
:100170003807E001000000000000000000008C01D2
:100180009801F00F98018C010000000000000000B1
:10019000000000000000000000000000000000005F
:1001A000000000000000000000000000000000004F
:1001B00000000000000000000000000000001C0023
:1001C0001C000000000000000000000000001C00F7
:1001D0007000C0010007001C000000000000F807CC
:1001E0000C0C0C0C0C0CF8070000000000000003C5
:1001F0000006FC0F000000000000000000001C06CC
:100200003C0CCC0C8C070C00000000000000060029
:1002100006188C19981FF000000000000000E01F75
:1002200060006000FC0F60000000000000000C0097
:100230000C008C1F9819F018000000000000FC074B
:10024000660CC618C6007C000000000000001C18E8
:100250007018C019001F001C0000000000003C0FB7
:10026000E619C618E6193C0F000000000000800FD8
:10027000C618CC18CC18F00F0000000000000000D9
:10028000000000000000000000000000000000006E
:10029000000000000000000000000000000000005E
:1002A000000000000000000000000000000000004E
:1002B000000000000000000000000000000000003E
:1002C0000000000000000000000000000000001816
:1002D0000018CE19001F0000000000000000F0010F
:1002E0000802E40414051405E00300000000FC0704
:1002F000600E600C600EFC070000000000000C0C9B
:10030000FC0FCC0CCC0C3807000000000000FC0FE8
:100310000C0C0C0C0C0C0C0C0000000000000C0C65
:10032000FC0F0C0C0C0CF807000000000000FC0F88
:10033000CC0CCC0C0C0C0C0C000000000000FC0FD2
:10034000C00CC00C000C000C000000000000FC0FF2
:100350000C0C0C0CCC0CFC0C000000000000FC0F82
:10036000C000C000C000FC0F0000000000000C0C2A
:100370000C0CFC0F0C0C0C0C0000000000003C00EE
:100380000C000C000C00FC0F000000000000FC0F33
:10039000C000E00030031C0E000000000000FC0F55
:1003A0000C000C000C000C00000000000000FC0F12
:1003B000000600030006FC0F000000000000FC0F18
:1003C0000007C0017000FC0F000000000000FC0FDF
:1003D0000C0C0C0C0C0CFC0F0000000000000C0CB2
:1003E000FC0FCC0CC00C8007000000000000FC0FCC
:1003F0000C0C3C0CFC0F0F00000000000000FC0F78
:10040000C00CC00CF00C9C070000000000008C0722
:10041000CC0CCC0CCC0C780C000000000000000CC4
:10042000000CFC0F000C000C000000000000F80F96
:100430000C000C000C00F80F000000000000FC0F86
:100440003800E0008003000E000000000000F80FFC
:100450000C00F8000C00F80F0000000000001C0E5B
:100460003003E00130031C0E000000000000000E0D
:100470008003FC008003000E0000000000001C0C44
:100480007C0CCC0C8C0F0C0E000000000000808156
:1004900083848687898A8C8D8F9192949597989A78
:1004A0009B9D9EA0A1A3A4A6A7A9AAACADAFB0B2E4
:1004B000B3B4B6B7B9BABBBDBEBFC1C2C3C5C6C768
:1004C000C9CACBCCCECFD0D1D2D4D5D6D7D8D9DA11
:1004D000DBDDDEDFE0E1E2E3E4E5E6E6E7E8E9EAEA
:1004E000EBECECEDEEEFF0F0F1F2F2F3F4F4F5F505
:1004F000F6F7F7F8F8F9F9F9FAFAFBFBFBFCFCFC64
:10050000FDFDFDFDFEFEFEFEFEFEFEFEFEFEFFFE0E
:10051000FEFEFEFEFEFEFEFEFEFDFDFDFDFCFCFC05
:10052000FBFBFBFAFAF9F9F9F8F8F7F7F6F5F5F449
:10053000F4F3F2F2F1F0F0EFEEEDECECEBEAE9E8D7
:10054000E7E6E6E5E4E3E2E1E0DFDEDDDBDAD9D8A9
:10055000D7D6D5D4D2D1D0CFCECCCBCAC9C7C6C5B9
:10056000C3C2C1BFBEBDBBBAB9B7B6B4B3B2B0AFF8
:10057000ADACAAA9A7A6A4A3A1A09E9D9B9A98975B
:10058000959492918F8D8C8A8987868483817F7ED2
:100590007C7B797876757372706E6D6B6A6867654F
:1005A0006462615F5E5C5B595856555352504F4DC3
:1005B0004C4B49484645444241403E3D3C3A39381F
:1005C0003635343331302F2E2D2B2A292827262556
:1005D000242221201F1E1D1C1B1A1919181716155D
:1005E0001413131211100F0F0E0D0D0C0B0B0A0A22
:1005F00009080807070606060505040404030303A3
:1006000002020202010101010101010101010101D6
:1006100001010101010101010102020202030303C0
:10062000040404050506060607070808090A0A0B5C
:100630000B0C0D0D0E0F0F101112131314151617AE
:100640001819191A1B1C1D1E1F20212224252627BC
:1006500028292A2B2D2E2F30313334353638393A8C
:100660003C3D3E40414244454648494B4C4D4F502D
:100670005253555658595B5C5E5F616264656768AA
:100680006A6B6D6E707273757678797B7C7E43735E
:10069000762066696C6520557064617465640057E6
:1006A000616974206373762066696C65002C303054
:1006B00030302C342C30303030002C0041542B445E
:1006C0004D4F53455447524F55503D302C005374B5
:1006D0006F70204750532074657374004750532047
:1006E00074657374696E672E2E2E7320746F205399
:1006F000746F700053454E442048454C4C4F005396
:100700004849465420333530004E454F204E2C4545
:10071000206F72204F004D4F44452C2041505253C2
:100720002C20525454592C2048454C4C2C204C43DE
:10073000442C205344434152442C204445425547C5
:100740002C2044554D502030206F722031005345ED
:10075000434F4E4420333000494E54455256414C8D
:100760002032300046524551203134342E3830305A
:100770003000474241554420393630300053594DFE
:10078000424F4C203E0053534944203132004341F4
:100790004C4C204634474F48004C4F41442C20528B
:1007A0004541442C204750532C2048454C502C2088
:1007B000545241434B2C205155495400434F4D4D09
:1007C000414E4453204C495354004C43443A20007A
:1007D00064756D704E4D45413A20006465627567E1
:1007E0003A20005364636172643A200046524551D6
:1007F00055454E4359206973203A200047505320F5
:100800004241554472617465206973203A20002C7E
:1008100048454C4C3A20002C53484946543A200055
:100820002C525454593A2000415052533A2000203F
:100830007365636F6E647300206D696E75746573A4
:1008400020616E6420004F4444004556454E0045EB
:10085000766572792000207365636F6E647300544F
:1008600072616E736D697420657665727920004DD2
:10087000657373616765206973203A20002053799E
:100880006D626F6C2069732000596F75722063610F
:100890006C6C20697320006F6B2071756974005156
:1008A0005549540073796E746178206572726F7265
:1008B00000515549540053454E4400545241434B56
:1008C0000048454C50004750530044554D5000449B
:1008D0004542554700534443415244004C43440071
:1008E00048454C4C00534849465400525454590012
:1008F00041505253005345434F4E44004E454F0024
:10090000494E54455256414C004D4F4445004742D4
:100910004155440053594D424F4C005353494400F4
:1009200043414C4C0066726571207570646174655A
:10093000206572726F7200667265712075706461F5
:10094000746520646F6E6500465245510052454102
:1009500044004C4F4144000A0D3E000A0D7479706A
:1009600065202768656C702720666F7220636F6D45
:100970006D616E6473206C69737400060002000F71
:100980000001000400080001000300010002000152
:10099000000100030001000100010001000100004E
:1009A0000006000800170018001C0024002500287D
:1009B0000029002B002C002D0030003100320033C4
:1009C00000340000004F00000003000300143E1438
:1009D0003E14242A7F2A1263130864633649552281
:1009E000500000070000001C2241000041221C00B2
:1009F0000A041F040A04041F040450300000000805
:100A000008080808606000000000601C03003E4108
:100A100049413E00027F0000466151494621494D4F
:100A20004B311814127F104F494949313E51494901
:100A3000320101710D033649494936264949493E7B
:100A40000033330000005333000000081422411427
:100A500014141414412214080006015109063E41E1
:100A600049151E78161116787F494949363E41418D
:100A700041227F4141413E7F494949497F09090956
:100A8000093E4141497B7F0808087F00007F000044
:100A9000384040413F7F080814637F404040407F1A
:100AA0000618067F7F0618607F3E4141413E7F0960
:100AB0000909063E4151215E7F0919294626494907
:100AC000493201017F01013F4040407F0F304030FB
:100AD0000F1F601C601F6314081463030478040371
:100AE0006151494543007F410000031C6000000044
:100AF000417F00000C0201020C40404040400001D8
:100B000002040020545454787F4844443838444404
:100B10004444384444487F3854545418087E0909E2
:100B2000000C5252543E7F0804047800007D0000FF
:100B300000403D00007F1028440000003F40007C42
:100B4000041804787C0804047838444444387F123C
:100B500011110E0E1111127F007C08040448545428
:100B60005424043E4444003C4040207C1C2040204F
:100B70001C1C6018601C44281028444628100806D5
:100B80004464544C44000877410000007F0000009A
:100B90004177080010081810080000000024002702
:100BA000002A000000000800020100000304070002
:100BB000000000000000006D20666F7220626F6F01
:100BC00074206D656E75006D20666F7220626F6FA8
:100BD00074206D656E7500207365636F6E647300BD
:100BE000206D696E7574657320616E6420004F44DA
:100BF00044004556454E00457665727920002073C5
:100C00006563005472616E736D69742065766572F8
:100C10007920004D65737361676520002053796DFD
:100C2000626F6C200020202020204634474F48204F
:100C3000323031360020204150525320545241432B
:100C40004B45522076332E30004E62207361742063
:100C50003A00486F7572203A0067676120666F75C9
:100C60006E64002D2D00416C7469747564653A00E2
:100C70004C6F6E6769747564653A004C6174697491
:100C80007564653A005458004865757265203A20CD
:100C900000475053204F4B202D4E6F20466978203F
:100CA00000475053204F4B202D46697820202020AC
:100CB000004E4F2047505320506C75676765642085
:100CC000000000000023002600290000000000258D
:100CD0000028002B0004040404040404040202029B
:100CE000020202030303030303010204081020406D
:100CF0008001020408102001020408102000141FC3
:100D0000AF2611241FBECFEFD8E0DEBFCDBF24E059
:100D1000AEEBB1E001C01D92A63CB207E1F711E0D5
:100D2000A0E0B1E0E2E1F8E502C005900D92AE3B33
:100D3000B107D9F716E0C0E8D6E004C02197FE015C
:100D40000E94E429CF37D107C9F70E94A21F0C9453
:100D5000FC2B0C9400002091350330913603F901EF
:100D6000E050FD4F80832F5F3F4F30933603209339
:100D700035030895089508950895DC01ED91FC91DF
:100D80000190F081E02D0994EF92FF920F931F9351
:100D9000CF93DF938C017B01D0E0C0E0F701EC0F33
:100DA000FD1F6491662361F0D801ED91FC910190E3
:100DB000F081E02DC8010995892B11F02196EECF25
:100DC000CE01DF91CF911F910F91FF90EF90089589
:100DD000AF92BF92CF92DF92EF92FF920F931F9349
:100DE000CF93DF936C017B018B01040F151FEB0187
:100DF0005E01AE18BF08C017D10759F06991D6013E
:100E0000ED91FC910190F081E02DC6010995892BAF
:100E100079F7C501DF91CF911F910F91FF90EF906E
:100E2000DF90CF90BF90AF900895FC01538D448D1B
:100E3000252F30E0842F90E0821B930B541710F085
:100E4000CF96089501970895FC01918D828D981792
:100E500061F0A28DAE0FBF2FB11D5D968C91928D6A
:100E60009F5F9F73928F90E008958FEF9FEF08959B
:100E7000FC01918D828D981731F0828DE80FF11D64
:100E8000858D90E008958FEF9FEF0895FC01918D7F
:100E9000228D892F90E0805C9F4F821B91098F7378
:100EA0009927089587E393E00E94460721E0892B64
:100EB00009F420E0822F089580E090E0892B29F04A
:100EC0000E94520781110C9400000895FC01A48D2A
:100ED000A80FB92FB11DA35ABF4F2C91848D90E05C
:100EE00001968F739927848FA689B7892C93A0893F
:100EF000B1898C91837080648C93938D848D9813C9
:100F000006C00288F389E02D80818F7D808308955B
:100F1000EF92FF920F931F93CF93DF93EC0181E049
:100F2000888F9B8D8C8D98131AC0E889F9898081F0
:100F300085FF15C09FB7F894EE89FF896083E88923
:100F4000F98980818370806480839FBF81E090E015
:100F5000DF91CF911F910F91FF90EF900895F62EA2
:100F60000B8D10E00F5F1F4F0F731127E02E8C8D3C
:100F70008E110CC00FB607FCFACFE889F989808181
:100F800085FFF5CFCE010E946607F1CFEB8DEC0F08
:100F9000FD2FF11DE35AFF4FF0829FB7F8940B8F9E
:100FA000EA89FB8980818062CFCF682F87E393E055
:100FB0000C948807CF93DF93EC01888D8823B9F0D8
:100FC000AA89BB89E889F9898C9185FD03C0808154
:100FD00086FD0DC00FB607FCF7CF8C9185FFF2CFD1
:100FE000808185FFEDCFCE010E946607E9CFDF91BA
:100FF000CF910895833081F028F4813099F08230C8
:10100000A9F008958730A9F08830C9F08430B1F490
:10101000809180008F7D03C0809180008F778093C6
:101020008000089584B58F7784BD089584B58F7D41
:10103000FBCF8091B0008F778093B00008958091AE
:10104000B0008F7DF9CFCF93DF93282F30E0F901E7
:10105000ED55F44F8491F901E751F34FD491F90123
:10106000EB52F34FC491CC23A1F081110E94FA07F7
:10107000EC2FF0E0EE0FFF1FEF53F34FA591B4916B
:10108000EC91ED2381E090E009F480E0DF91CF91D5
:10109000089580E090E0FACF1F93CF93DF93282F3D
:1010A00030E0F901ED55F44F8491F901E751F34F28
:1010B000D491F901EB52F34FC491CC23A9F0162F30
:1010C00081110E94FA07EC2FF0E0EE0FFF1FE553AD
:1010D000F34FA591B4918FB7F894EC91111108C01A
:1010E000D095DE23DC938FBFDF91CF911F910895C0
:1010F000DE2BF8CF1092570410925604209156041C
:101100003091570428173907CCF38091E6030E94E9
:10111000230861E068278091E6030C944C080F9344
:101120001F93CF93DF93C82FCC0FCC0FCD5F07E079
:1011300010E00C2E000CDD0BCE01002E02C09595A8
:1011400087950A94E2F780FD1CC08091FF0390917F
:101150000004A0910104B09102048093F3039093E2
:10116000F403A093F503B093F60384E291E00E94A8
:101170007A080150110900F7DF91CF911F910F916B
:1011800008958091F7039091F803A091F903B0912D
:10119000FA03E3CF1F93CF93DF93D82FC8E011E07A
:1011A0005D2F51704091630480916404842B91F40D
:1011B00020916504309166042527C901969587958D
:1011C00020FF04C028E0822724E892279093660439
:1011D00080936504511125C0109262048091EE0342
:1011E000982F91279093EE03813049F58091FB036E
:1011F0009091FC03A091FD03B091FE038093F30353
:101200009093F403A093F503B093F603D6958BE087
:1012100090E00E947A08C15019F6DF91CF911F919A
:101220000895809162048F5F809362044111EECF34
:10123000853061F78BE090E00E947A08CDCF8091F5
:10124000F7039091F803A091F903B091FA03D6CF78
:10125000CF93DF9390E0FC01E751F34F24918B5241
:10126000934FFC0184918823D1F090E0880F991F5F
:10127000FC01E756F44FA591B491FC01E553F34FFF
:10128000C591D49161110EC09FB7F8948C91E22F53
:10129000E0958E238C932881E223E8839FBFDF9122
:1012A000CF9108958FB7F894EC91E22BEC938FBF18
:1012B000F6CF0F931F93CF93DF93EC01162F042FDC
:1012C0001B821A8288EE93E0A0E0B0E08C839D83BD
:1012D000AE83BF8380E691E0998388831F8A1E8A4C
:1012E000198E188E1B8E1A8E1D8E1C8E6E8D6E7F23
:1012F0006D7F6E8F6695617081E06827842F0E94F4
:101300004C0861E0802F0E942809802F90E0FC01AA
:10131000E751F34FE491E88BFC01EB52F34FE4917A
:10132000F0E0EE0FFF1FE553F34F859194919A8BF8
:10133000898B60E0812F0E9428098E8D81FD04C079
:1013400061E0812F0E944C081C87812F90E0FC01F6
:10135000E751F34FE491ED87FC01EB52F34FE49139
:10136000F0E0EE0FFF1FEF53F34F859194919F87AD
:101370008E87DF91CF911F910F9108953FB7F89419
:1013800080917D0290917E02A0917F02B0918002B7
:1013900026B5A89B05C02F3F19F00196A11DB11DD0
:1013A0003FBFBA2FA92F982F8827BC01CD01620F0C
:1013B000711D811D911D43E0660F771F881F991FC6
:1013C0004A95D1F708958F929F92AF92BF92CF9294
:1013D000DF92EF92FF924B015C010E94BE096B010C
:1013E0007C010E94BE096C197D098E099F09683E27
:1013F000734081059105A8F321E0821A9108A108A4
:10140000B10888EEC80E83E0D81EE11CF11C8114DF
:101410009104A104B10429F7FF90EF90DF90CF90E1
:10142000BF90AF909F908F9008952FB7F8946091E0
:10143000790270917A0280917B0290917C022FBF99
:101440000895089520915502260F3327331F213226
:101450003105ECF42091D602FC0190E080E02430CC
:1014600069F082E00895A09155022191AC014B5C96
:101470005D4FA40FB52FB11D2C930196861798F3DD
:1014800080915502680F6093550280E0089581E0D5
:1014900008951092D60281E08093D5021092B00296
:1014A00061E082E10E944C0861E083E10E944C0807
:1014B000E9EBF0E080818E7F808380818D7F808367
:1014C00080E28093B80085E48093BC000895CF93B8
:1014D000DF9391E0909334028823B9F0C091B80073
:1014E000D091BA008091BC008A7B8093BC0060E000
:1014F00082E10E944C0860E083E10E944C080E9457
:10150000490AD093BA00C093B800DF91CF910895F3
:10151000CF92DF92EF92FF920F931F93CF93DF93BF
:10152000D091FF0281E0D13208F09CC0C091FE0250
:101530000E94BE096B017C018091D60281116CC0B2
:1015400082E08093D60281E08093D5028FEF809372
:10155000D4021092D302D093D202AEEDB2E0E2EB0D
:10156000F2E080E0D8138DC01092B1028091B102F8
:10157000CC0FC82BC093B1028091B002813009F02A
:1015800084C01092B0020E94BE096B017C01809160
:10159000B1028093BB008091D8029091D902A091B2
:1015A000DA02B091DB02892B8A2B8B2BA1F00E94EF
:1015B000BE090091D8021091D9022091DA0230912F
:1015C000DB026C197D098E099F090617170728078A
:1015D000390708F442C08091BC0083FDD8CF85EC68
:1015E0008093BC000E94BE096B017C018091D602F1
:1015F000823009F44CC08091D4028F3F09F469C055
:101600008091D402803209F466C08091D402803384
:1016100009F463C084E026C08091D8029091D90279
:10162000A091DA02B091DB02892B8A2B8B2B09F473
:1016300083CF0E94BE090091D8021091D902209157
:10164000DA023091DB026C197D098E099F090617B9
:1016500017072807390708F06FCF8091D7020E943B
:10166000670A85E01092DD021092FF021092DC0200
:10167000DF91CF911F910F91FF90EF90DF90CF906E
:1016800008959D9191938F5F6DCF85EEA9CF809145
:10169000D8029091D902A091DA02B091DB02892B95
:1016A0008A2B8B2B09F4A2CF0E94BE090091D8028D
:1016B0001091D9022091DA023091DB026C197D0978
:1016C0008E099F09061717072807390708F08ECFDC
:1016D000C4CF80E0C7CF82E0C5CF83E0C3CFE09125
:1016E000860280918502E81730F4F0E0EC5EFD4F51
:1016F000808190E008958FEF9FEF0895909186028A
:10170000809185022FEF3FEF981748F4E92FF0E022
:10171000EC5EFD4F208130E09F5F90938602C9010F
:1017200008958091850290918602891B990B0895F6
:10173000CF92DF92EF92FF920F931F93CF93DF939D
:101740007C01CB018A012091DC02222389F0EB018C
:101750006B01C40ED51ECC15DD0569F06991D7016A
:10176000ED91FC910190F081E02DC7010995F3CF37
:10177000642F0E94220AC801DF91CF911F910F911F
:10178000FF90EF90DF90CF900895CF93DF931F925B
:10179000CDB7DEB769832091DC022223F9F02091D6
:1017A000FF02203258F021E030E0FC013383228335
:1017B00090E080E00F90DF91CF9108958091DD025D
:1017C000E82FF0E0E252FD4F998190838F5F809384
:1017D000DD028093FF0281E090E0ECCF61E0CE017A
:1017E00001960E94220AF7CFCF93C62FFC01868173
:1017F00091E09093DC028093FE021092DD02109241
:10180000FF0260E484ED93E00E94C50B6C2F84ED31
:1018100093E00E94C50BCF910C94880ACF93C62FFA
:10182000FC01868191E09093DC028093FE0210928D
:10183000DD021092FF0260E084ED93E00E94C50B90
:101840006C2F84ED93E00E94C50BCF910C94880A15
:1018500090918104891748F590918004691728F5C3
:101860008093830460938204982F990F890F880FC7
:1018700080937E04862F880F880F880F80937F04C3
:10188000606B83E794E00E940E0C60917E046F70A1
:1018900083E794E00E940E0C60917E0462956F7065
:1018A000606183E794E00C940E0C0895209112027D
:1018B000309113022817390771F490911102809129
:1018C0001002981741F0E0911102F0E0E053FE4F52
:1018D000808190E008958FEF9FEF0895EF92FF923F
:1018E0000F931F93CF93DF93DC015C96ED90FC90F8
:1018F0005D97E114F10479F481E090E013969C93F4
:101900008E93129790E080E0DF91CF911F910F911D
:10191000FF90EF9008955196ED91FC91529750965B
:101920008C915097982F90950FB75E962C915E975B
:10193000122F127021FD6095F8942081112319F166
:10194000282B2083E7012197F1F728E0462F50E06C
:10195000308160FF1AC0382B3083E7012197F1F7FF
:10196000BA0175956795215089F7112381F080811F
:10197000892380830FBF5C968D919C910197F1F72D
:1019800081E090E0C1CF2923DCCF3923E5CF9081DE
:10199000892BEFCF209112023091130228173907BB
:1019A00071F4809110022091110290E0805C9F4FB1
:1019B000821B910960E470E00E948F29089590E0F5
:1019C00080E0089520911202309113022817390700
:1019D000B9F49091110280911002981789F0E0916A
:1019E0001102F0E0E053FE4F80812091110230E0BF
:1019F0002F5F3F4F2F7333272093110290E00895FC
:101A00008FEF9FEF0895E0911202F0911302E81713
:101A1000F90769F4A389B4899C9185898095892304
:101A20008C93109213021092120281E0089580E0CC
:101A30000895CF93DF93EC019A01AB011B8E1A8EB0
:101A4000198E188E1F8A1E8A60E874E88EE190E075
:101A50000E94C529F901C90103972430310510F40A
:101A600081E090E09D8F8C8F6C85663108F053C0CB
:101A7000C901969587958431910508F46FC0439705
:101A80009F8B8E8BC9010597369710F481E090E00B
:101A9000998F888FC901880F991F280F391F369594
:101AA0002795369527952D30310508F45AC02C50CE
:101AB00031093B8F2A8F9091680084E0683048F0AC
:101AC00021E06E3008F420E081E001C0880F2A9503
:101AD000EAF7892B809368009C852DE630E09830EA
:101AE00050F02BE630E09E3030F02CE630E09631BE
:101AF00010F030E020E03C8B2B8B292F30E0983029
:101B000098F581E001C0880F9A95EAF78D8B8C8D4E
:101B10009D8D0197F1F78A8D9B8D892BE1F0809146
:101B2000120290911302C817D907A9F0009711F07B
:101B30000E94030D8E8D8E7F8E8F10921002109258
:101B40001102D0931302C0931202EB89FC898081A9
:101B50009D89892B8083DF91CF91089581E090E06A
:101B60008FCF21E030E0A5CF9E3040F428503109DE
:101B700081E001C0880F2A95EAF7C8CF2E503109BD
:101B8000F7CF90E080E00895EF92FF920F931F93BC
:101B9000CF938091EF039091F003A091F103B09166
:101BA000F2034091F3035091F4036091F5037091B7
:101BB000F603840F951FA61FB71F8093EF03909322
:101BC000F003A093F103B093F2038091EF0390919F
:101BD000F003A091F103B091F20327E1B695A79528
:101BE000979587952A95D1F790935504809354043F
:101BF000E0915404F0915504E257FB4FC491EC2E50
:101C0000F12C0091E8031091E90361E0802F0E941C
:101C10002809E114F10429F460E0802F0E944C08A7
:101C20002BC08FEFE816F10411F461E0F6CFF80154
:101C3000FF27ED55F44FE491E33091F148F4E130A2
:101C4000B9F0E23041F180E8E816F10474F7E4CF2E
:101C5000E73081F1E830B1F1E430A9F780918000FC
:101C6000806280938000F0928B00E0928A0004C032
:101C700084B5806884BDC7BD809156049091570497
:101C800001969093570480935604CF911F910F9122
:101C9000FF90EF90089584B5806284BDC8BDECCFFD
:101CA00080918000806880938000F0928900E092AB
:101CB0008800E2CF8091B00080688093B000C0932C
:101CC000B300DACF8091B00080628093B000C093FF
:101CD000B400D2CFCF93DF9361E283E794E00E9418
:101CE0000E0C60E083E794E00E940E0C6FE783E740
:101CF00094E00E940E0C62E283E794E00E940E0CD6
:101D000060E083E794E00E940E0C67E083E794E0D4
:101D10000E940E0C60EB83E794E00E940E0C60E0E2
:101D200083E794E00E940E0C60E183E794E00E9458
:101D30000E0CC0E0D4E060E083E794E00E94F40B76
:101D40002197C9F766EA83E794E00E940E0C60E0F1
:101D500080E0DF91CF910C94280CEF92FF921F93BB
:101D6000CF93DF937C01C0EED3E085E090E09987CC
:101D7000888780E190E09F838E8361E00E9428093C
:101D800061E088850E942809188561E0812F0E9402
:101D9000280960E0812F0E944C0860E08E810E943B
:101DA0004C088AE997E9ADE4B6E48A879B87AC875B
:101DB000BD8780E891EEA8E5B7E18F8B988FA98F5A
:101DC000BA8F80E49DE9ADECBAE28B8F9C8FAD8F2A
:101DD000BE8F60EB74E06E197F09072E000C880B34
:101DE000990B0E947A2720E030E040E85FE40E94EF
:101DF000B5272AE937E94DE456E40E94DA280E9423
:101E00004C296F8F78A389A39AA3DF91CF911F915B
:101E1000FF90EF900895CF92DF92EF92FF921F9381
:101E2000CF93DF93EC016A3039F48C85885F8C871F
:101E30008F858F5F8F8702C06D3019F4188A1B86DB
:101E400056C0162F89858450990B2B8528171906A3
:101E50000CF042C06C858A858750990B681719066B
:101E6000DCF5669566956695606BCE010E940E0C5A
:101E70006B856F70CE010E940E0C6B8562956F7042
:101E80006061CE010E940E0C812F8152990B9C0142
:101E900045E0429FC001439F900D1124F12CE12C9D
:101EA0009C012D53364F690160E0103221F0F6019C
:101EB000EE0DFF1D6491CE010E94F40B3FEFE31A7B
:101EC000F30A85E0E816F10479F760E0CE010E949C
:101ED000F40B8B858A5F8B878D81882341F0898500
:101EE0008550990B2B85281719060CF09ECF81E0A1
:101EF00090E0DF91CF911F91FF90EF90DF90CF9016
:101F000008950F931F93CF93DF93EB010091350357
:101F100010913603AB01BC01C80180509D4F0E9457
:101F2000D42BC00FD11FD0933603C0933503DF915C
:101F3000CF911F910F910895FC0124813581FB0100
:101F40004481558124173507E1F4FC01808191819A
:101F5000FB01608171810097D1F061157105A1F4D9
:101F6000232BC1F0FC01808190E008C0232B91F06D
:101F7000FB01808190E091958195910921E0892B69
:101F800009F020E0822F08950E94DD2BF7CF611524
:101F9000710561F721E0F6CFCF93DF93FC01C0819B
:101FA000D181209761F08991882349F0082E000C97
:101FB000990B0E94CC2BFE0131978083F4CFDF91E7
:101FC000CF9108956F927F928F929F92AF92BF921E
:101FD000CF92DF92EF92FF920F931F93CF93DF93F5
:101FE00061E082E00E944C0860ED77E080E090E0E4
:101FF0000E94E30961E083E00E944C0864EF71E015
:1020000080E090E00E94E30985B5887F816085BD0E
:1020100060906E0010926E007090680010926800E0
:1020200084EC9DE090939D0280939C0281E08093DC
:102030006F008091810090919A02892B809381009A
:10204000C0910201C13009F058C0D09100018FEF5A
:102050009FEF90936604809365041092620486E07B
:1020600090E09093590480935804C093EE038091BC
:10207000FB039091FC03A091FD03B091FE038093BC
:10208000F3039093F403A093F503B093F6038BE06E
:1020900090E00E947A08C093630410926404C8EC34
:1020A0008EE70E94CA08C150D9F7109263040EE06F
:1020B00011E0DC1739F0F80181918F010E94CA0804
:1020C000CF5FF7CFC1E0C093640480916504809531
:1020D0000E94CA0880916604809365041092660489
:1020E00080950E94CA0810926404C0936304C4E6F9
:1020F0008EE70E94CA08C150D9F78091CF01813084
:1021000009F041C08091000301E013E0C1E0D0E09C
:102110008823C9F1082E000C990B0E94CC2B8A3021
:1021200039F488E00E948F08F80181918F01F0CF87
:102130008D3011F482E0F6CF803211F484E0F2CFDA
:102140009FED980F9A3380F740EEF42EF80EF0E2F0
:10215000FF1588F0C130D10529F48BE10E948F086A
:10216000D0E0C0E0EF2DF0E0EE0FFF1FE859FF4F89
:1021700085919491D7CF2097A9F78FE10E948F087E
:10218000C1E0D0E0EFCF8091CE01813009F05EC098
:102190008091000391E0C92E93E0D92E20E4A22E75
:1021A000B12C882309F452C0082E000C990B0E9410
:1021B000CC2B80528B3308F03CC0F8E08F9F80011D
:1021C0001124D0E0C0E0FE01E00FF11FEE0FFF1F71
:1021D000E252FF4F85909490F12CE12CC4010E2C1B
:1021E00002C0969587950A94E2F780FF26C08091F9
:1021F000F7039091F803A091F903B091FA0380934B
:10220000F3039093F403A093F503B093F60385E3EF
:1022100090E00E947A08C5010197F1F78FEFE81A64
:10222000F80A9EE0E916F104C9F62196C730D105F7
:1022300051F6F60181916F01B4CF1092F303109221
:10224000F4031092F5031092F603E1CF60E083E00F
:102250000E944C0860E082E00E944C0880916F0070
:102260008E7F80936F0061E085E00E94280960E026
:1022700085E00E944C0885B5887F836085BD6092AB
:102280006E00709268004091030150910401052E88
:10229000000C660B770B84E894E00E94190D1092F5
:1022A0005A04DF91CF911F910F91FF90EF90DF9033
:1022B000CF90BF90AF909F908F907F906F90089538
:1022C0000F931F93CF93DF93EC018881998100973F
:1022D00059F02A813B812617370730F081E0DF91E2
:1022E000CF911F910F9108958B016F5F7F4F0E94D7
:1022F0000F2B009759F0998388831B830A832C81C5
:102300003D81232B59F7FC011082E8CF80E0E7CF15
:10231000CF93DF93EC0188819981009711F00E949F
:10232000862A198218821D821C821B821A82DF91E2
:10233000CF910895EF92FF920F931F93CF93DF9366
:1023400000D0CDB7DEB78C0169831A82FC01E4802E
:10235000F580FFEFEF1AFF0AB7010E946011882392
:10236000C9F0F8012081318184819581BE016F5FC0
:102370007F4F820F931F0E94E62BF801F582E482C3
:10238000C8010F900F90DF91CF911F910F91FF9097
:10239000EF900895C8010E948811F2CFEF92FF924A
:1023A0000F931F93CF93DF93EC017B018A01BA0156
:1023B0000E94601181110BC0CE010E948811CE01D4
:1023C000DF91CF911F910F91FF90EF9008951D83A2
:1023D0000C83B701888199810E94E62BF0CFCF93BF
:1023E000DF93EC01FB018617970749F0608171814B
:1023F0006115710541F0448155810E94CE11CE01D5
:10240000DF91CF9108950E948811F9CFFC011182CC
:10241000108213821282158214820C94EF11FC0137
:1024200080819181009711F00C94862A0895FB0118
:1024300001900020E9F73197AF01461B570BDC01F3
:10244000ED91FC910280F381E02D09948F929F928F
:10245000AF92BF92EF92FF920F931F93CF93DF93B0
:10246000CDB7DEB7A1970FB6F894DEBF0FBECDBFD4
:102470007C01FA01CB0119A2223008F42AE08E0176
:102480000F5D1F4F822E912CB12CA12CBF01A501F5
:1024900094010E94A329F901CA016A300CF5605D1C
:1024A000D8016E938D01232B242B252B79F790E0F7
:1024B00080E0109721F0BD01C7010E941712A1967C
:1024C0000FB6F894DEBF0FBECDBFDF91CF911F9145
:1024D0000F91FF90EF90BF90AF909F908F900895D5
:1024E000695CDECFCF92DF92EF92FF920F931F9342
:1024F000CF93DF936B01770FEE08FF08F7FE1BC049
:10250000EC016DE20E94BD068C0144275527BA01FB
:102510004C195D096E097F092AE0CE010E9426123E
:10252000800F911FDF91CF911F910F91FF90EF903E
:10253000DF90CF9008952AE0B701A601DF91CF91F7
:102540001F910F91FF90EF90DF90CF900C94261287
:102550006EE971E00C941712CF93DF93482F50E08F
:1025600070E060E02AE087E393E00E942612EC012D
:1025700087E393E00E94A8128C0F9D1FDF91CF91FB
:102580000895CF93DF93BC0187E393E00E9472121A
:10259000EC0187E393E00E94A8128C0F9D1FDF914E
:1025A000CF910895CF92DF92EF92FF92CF93DF9376
:1025B0006B017C01F7FE21C06DE287E393E00E948E
:1025C000BD06EC0144275527BA014C195D096E0977
:1025D0007F092AE087E393E00E942612C80FD91FE3
:1025E00087E393E00E94A8128C0F9D1FDF91CF918B
:1025F000FF90EF90DF90CF9008952AE0BC01A601F4
:1026000087E393E00E942612EC01EACF0F931F9319
:10261000CF93DF93EC010E94BD068C01CE010E9496
:10262000A812800F911FDF91CF911F910F910895F4
:102630000F931F93CF93DF938C01D0E0C0E061151F
:10264000710519F00E941712EC01C8010E94A8122E
:102650008C0F9D1FDF91CF911F910F9108950F93C4
:102660001F93CF93DF93EC010E94C4068C01CE012F
:102670000E94A812800F911FDF91CF911F910F919F
:1026800008956115710511F00C94171290E080E027
:102690000895EF92FF920F931F93CF93DF93EC0176
:1026A0008B01198218821B821A821D821C82CB0127
:1026B0000E9411277C01BC01CE010E946011811192
:1026C00009C0CE01DF91CF911F910F91FF90EF9044
:1026D0000C948811FD82EC82B80188819981DF9188
:1026E000CF911F910F91FF90EF900C940A2785EDE9
:1026F0008093BC008091D8029091D902A091DA0217
:10270000B091DB020796A11DB11D23E0B695A795F8
:10271000979587952A95D1F72091BC0024FD03C099
:102720001092D60208954091D8025091D90260913A
:10273000DA027091DB02452B462B472B69F3009799
:10274000A105B10541F02AE12A95F1F700C00197F2
:10275000A109B109E1CF8091D7020C94670AAF9229
:10276000BF92CF92DF92FF920F931F93CF93DF938D
:10277000EB01F42E082E000C990B81549109880F5F
:10278000991FFC01E156F64F05911491FC01E558A3
:10279000F64FC590D490B12CA12CAC14BD04BCF460
:1027A000C8018A0D9B1D0E947328811101C080E21F
:1027B0009E012A0D3B1D91E0225F3E4FF91201C0A0
:1027C000880FF9018083FFEFAF1ABF0AE6CFDF91D0
:1027D000CF911F910F91FF90DF90CF90BF90AF905E
:1027E0000895BF92CF92DF92EF92FF920F931F93C3
:1027F000CF93DF93EB01082E000C990B81549109C4
:10280000880F991FFC01E156F64FE590F490FC010A
:10281000E558F64FC590D490B12C0B2D10E00C1557
:102820001D055CF4C8018E0D9F1D0E947328FE01DA
:10283000E00FF11F8083B394F0CFCC0DDD1D188223
:10284000DF91CF911F910F91FF90EF90DF90CF908C
:10285000BF9008957F928F929F92AF92BF92CF9236
:10286000DF92EF92FF920F931F93CF93DF93CDB739
:10287000DEB70DB71EB7082E000C990B81549109D5
:10288000880F991FFC01E156F64FE590F490FC018A
:10289000E558F64FA590B4908DB79EB78A199B095D
:1028A0000FB6F8949EBF0FBE8DBF01964C01712CE0
:1028B000C72CD12CCA14DB045CF4C6018E0D9F1DFD
:1028C0000E947328F401EC0DFD1D80837394F0CFFA
:1028D000C4010E94C5260FB6F8941EBF0FBE0DBFDF
:1028E000DF91CF911F910F91FF90EF90DF90CF90EC
:1028F000BF90AF909F908F907F900895BF92CF929E
:10290000DF92EF92FF920F931F93CF93DF9387E4B1
:102910000E942A14182F8093870288E40E942A14A8
:102920006C0190930B0180930A01EFEAF9E0859125
:1029300094910E947328F82E809309018AE40E94E2
:102940002A14082F809307019093080182E40E94C3
:102950002A14C82F80930D0185E40E942A149093B5
:102960000401809303018BE40E942A1480930201E6
:102970008CE40E942A148093CF018DE40E942A14D3
:1029800090930601809305018EE40E942A1480939F
:10299000CE018FE40E942A148093A60280E50E9453
:1029A0002A148093CD0181E50E942A14B82E8093C9
:1029B000010182E50E942A14E82E8093CC0163EC89
:1029C00071E086E40E94F1136EE972E081E40E94F6
:1029D000F11368E872E083E40E94F113E5EAF9E09C
:1029E000859194910E947328D82F80930C01D092E6
:1029F0003004C0922F0481E0B11001C080E08093C8
:102A0000360481E0E11001C080E080933704F09249
:102A1000390400933A041093380441E067E070E011
:102A200081E40E94AF1340E069E370E083E40E9418
:102A3000AF1388E480930001C05DCC0FC0931B01ED
:102A4000D093460160E080E1DF91CF911F910F911B
:102A5000FF90EF90DF90CF90BF900C944C08DF92E6
:102A6000EF92FF920F931F93CF93DF93EB01082E0A
:102A7000000C990B81549109880F991FFC01E156B4
:102A8000F64F05911491FC01E558F64FE590F4904E
:102A9000D12C8D2D90E02C813D818217930780F4FD
:102AA0002881398160E02115310521F0280F391F77
:102AB000F9016081800F911F0E947B28D394E9CF98
:102AC000C22F8C2F90E08E159F053CF460E0800FA4
:102AD000911F0E947B28CF5FF4CFDF91CF911F9190
:102AE0000F91FF90EF90DF9008952F923F924F92B9
:102AF0005F926F927F928F929F92AF92BF92CF928E
:102B0000DF92EF92FF920F931F93CF93DF93CDB796
:102B1000DEB763970FB6F894DEBF0FBECDBF6BE58F
:102B200079E087E393E00E942F1390E080E00E9419
:102B300073288F3F11F00E947E1418861F821A8618
:102B400019861C861B8650E040E060EA71E0CE01E9
:102B500007960E94CE111E861D86188A1F861A8A25
:102B6000198A50E040E060EA71E0CE010D960E94C3
:102B7000CE1187E393E00E9424073324339467E562
:102B800079E087E393E00E94C40650E040E060EA09
:102B900071E0CE0107960E94CE1150E040E060EA5D
:102BA00071E0CE010D960E94CE11F12CE12C87E34D
:102BB00093E00E94460718161906CCF787E393E0C6
:102BC0000E942407182F8A3009F444C6082E000CEE
:102BD000990B0E94D5071032C9F0BE01E114F1042F
:102BE000C9F4695F7F4FCE0101960E940612612FE2
:102BF000CE0101960E949A11BC01CE0107960E9457
:102C0000EF11CE0101960E940F12D1CFEE24E39472
:102C1000F12CCDCF635F7F4FCE0101960E9406124B
:102C2000612FCE0101960E949A11BC01CE010D9632
:102C3000E6CF813009F042C6EA3041F51092C10179
:102C40008091BE018F5F8093BE01823109F036C64C
:102C500030E0E32E33E0F32E10E000E0C8010E94E4
:102C60007328D7016D917D01262F062E000C330BA2
:102C70008217130619F0C8010E947B280F5F1F4FAF
:102C80000533110559F73092C20118C6EC3209F428
:102C900015C6E23209F412C6ED3009F40FC6809170
:102CA000BF019091C0019C012F5F3F4F3093C00145
:102CB0002093BF0180509D4FDC01EC93FFC56EE86F
:102CC00076E087E393E00E942F137BC06DE479E008
:102CD000CE0101960E944913BE016F5F7F4FCE0166
:102CE00007960E949C0F082FCE0101960E940F129A
:102CF000013009F0A4C08FE9882E89E0982E9BE767
:102D0000A92E99E0B92E22EFC22EDD24DA940CEF21
:102D10001FEFC8018B5B9F4F0E94D5078CE290E0AC
:102D20000E94D507F40145905490F5016590749088
:102D3000F12CE12CE614F70424F5B0E1CB16D10414
:102D400030F48CE290E0E8E0EE16F10441F002305D
:102D5000110538F4E114F10421F482E290E00E94BC
:102D6000D507C701840D951D0E947328882329F07B
:102D7000082E000C990B0E94D507FFEFEF1AFF0AEF
:102D8000D9CF0230110530F477FC04C082E290E024
:102D90000E94D5078CE290E00E94D50787E393E07C
:102DA0000E94A81222E0820E911C82E0A80EB11CA3
:102DB0000F5F1F4FAFEFCA1ADA0A0E30110509F084
:102DC000A8CF0E947E146FE978E0CE0101960E94A0
:102DD0004913BE016F5F7F4FCE0107960E949C0F83
:102DE000182FCE0101960E940F12112309F4C7CEAD
:102DF00067E978E087E393E00E942F13CE010D96F8
:102E00000E940F12CE0107960E940F1263960FB612
:102E1000F894DEBF0FBECDBFDF91CF911F910F9110
:102E2000FF90EF90DF90CF90BF90AF909F908F90EA
:102E30007F906F905F904F903F902F90089568E43F
:102E400079E0CE0101960E944913BE016F5F7F4F6A
:102E5000CE0107960E949C0F082FCE0101960E947A
:102E60000F12013009F08BC063EC71E0113009F4EE
:102E70009EC0BE01635F7F4FCE0101960E94061285
:102E8000BE016F5F7F4F86E40E942F15CE01019631
:102E90000E940F120E947E1440E855E260E070E04C
:102EA00083EA94E00E94190D61E082E00E944C08E0
:102EB00060ED77E080E090E00E94E3096CEB76E063
:102EC00083EA94E00E94C40663EC71E083EA94E034
:102ED0000E9441136AEB76E083EA94E00E94C40604
:102EE00063EC71E083EA94E00E9441136DEA76E0BE
:102EF00083EA94E00E942F130E94150A6B017C0163
:102F0000C092AC02D092AD02E092AE02F092AF025B
:102F100010E083EA94E00E94CA0C181619063CF4EB
:102F200083EA94E00E94E20C2B8A212E182F0E9443
:102F3000150ADC01CB018C199D09AE09BF098093EC
:102F4000A8029093A902A093AA02B093AB021A30F0
:102F500029F0803D9740A105B105DCF260E082E0F8
:102F60000E944C0883EA94E00E94030DFB8967E30A
:102F700079E0F03309F4A5CE65E279E0A2CE60E213
:102F800079E0CE0101960E944913BE016F5F7F4F29
:102F9000CE0107960E949C0F082FCE0101960E9439
:102FA0000F120130D9F4113039F46EE972E087E381
:102FB00093E00E94181305CFBE01635F7F4FCE01DF
:102FC00001960E940612BE016F5F7F4F81E40E944E
:102FD0002F15CE0101960E940F12F3CE6BE179E01E
:102FE000CE0101960E944913BE016F5F7F4FCE0153
:102FF00007960E949C0F082FCE0101960E940F1287
:10300000013089F480910D01113009F477C0BE01BF
:10301000635F7F4FCE0101960E940612BE016F5F73
:103020007F4F82E4D4CF64E179E0CE0101960E9423
:103030004913BE016F5F7F4FCE0107960E949C0F20
:10304000082FCE0101960E940F12013089F4609181
:103050000C01113009F4A0C0BE01635F7F4FCE01A7
:1030600001960E940612BE016F5F7F4F84E4AFCFCE
:103070006EE079E0CE0101960E944913BE016F5FB8
:103080007F4FCE0107960E949C0F082FCE0101961C
:103090000E940F12013099F4809103019091040174
:1030A000113009F415C1BE01635F7F4FCE01019657
:1030B0000E940612BE016F5F7F4F85E488CF69E0F2
:1030C00079E0CE0101960E944913BE016F5F7F4FE8
:1030D000CE0107960E949C0F082FCE0101960E94F8
:1030E0000F120130D1F489899A89892B29F0ED8555
:1030F000FE858081811105C0809187020E94AC12FB
:1031000060CEBE01635F7F4FCE0101960E94061222
:10311000BE016F5F7F4F87E45ACF60E079E0CE0158
:1031200001960E944913BE016F5F7F4FCE01079643
:103130000E949C0F082FCE0101960E940F120130B1
:1031400099F480910A0190910B01113009F4C0C0EB
:10315000BE01635F7F4FCE0101960E940612BE0141
:103160006F5F7F4F88E433CF6CEF78E0CE0101963C
:103170000E944913BE016F5F7F4FCE0107960E94E8
:103180009C0F082FCE0101960E940F120130A9F466
:10319000113039F46091090187E393E00E9406132E
:1031A00010CEBE01635F7F4FCE0101960E940612D2
:1031B000BE016F5F7F4F89E40ACF65EF78E0CE01F3
:1031C00001960E944913BE016F5F7F4FCE010796A3
:1031D0000E949C0F082FCE0101960E940F12013011
:1031E00099F48091070190910801113009F470C0A1
:1031F000BE01635F7F4FCE0101960E940612BE01A1
:103200006F5F7F4F8AE4E3CE60EF78E0CE010196F6
:103210000E944913BE016F5F7F4FCE0107960E9447
:103220009C0F082FCE0101960E940F12013089F4E5
:1032300080910201113009F461CFBE01635F7F4FBD
:10324000CE0101960E940612BE016F5F7F4F8BE494
:10325000BECE6BEE78E0CE0101960E944913BE010E
:103260006F5F7F4FCE0107960E949C0F082FCE0103
:1032700001960E940F12013089F48091CF01113024
:1032800009F43CCFBE01635F7F4FCE0101960E94DF
:103290000612BE016F5F7F4F8CE499CE65EE78E039
:1032A000CE0101960E944913BE016F5F7F4FCE0190
:1032B00007960E949C0F082FCE0101960E940F12C4
:1032C0000130A9F4113039F4809105019091060183
:1032D0000E94C11276CDBE01635F7F4FCE01019681
:1032E0000E940612BE016F5F7F4F8DE470CE60EECC
:1032F00078E0CE0101960E944913BE016F5F7F4FB7
:10330000CE0107960E949C0F082FCE0101960E94C5
:103310000F12013089F48091CE01113009F4EECE04
:10332000BE01635F7F4FCE0101960E940612BE016F
:103330006F5F7F4F8EE44BCE6CED78E0CE0101964F
:103340000E944913BE016F5F7F4FCE0107960E9416
:103350009C0F082FCE0101960E940F12013089F4B4
:10336000113019F48091A602C9CEBE01635F7F4F70
:10337000CE0101960E940612BE016F5F7F4F8FE45F
:1033800026CE65ED78E0CE0101960E944913BE017C
:103390006F5F7F4FCE0107960E949C0F082FCE01D2
:1033A00001960E940F12013089F48091CD011130F5
:1033B00009F4A4CEBE01635F7F4FCE0101960E9447
:1033C0000612BE016F5F7F4F80E501CE6FEC78E0A3
:1033D000CE0101960E944913BE016F5F7F4FCE015F
:1033E00007960E949C0F082FCE0101960E940F1293
:1033F000013089F480910101113009F47FCEBE01C2
:10340000635F7F4FCE0101960E940612BE016F5F7F
:103410007F4F81E5DCCD6AEC78E0CE0101960E9419
:103420004913BE016F5F7F4FCE0107960E949C0F2C
:10343000082FCE0101960E940F12013089F480916D
:10344000CC01113009F45ACEBE01635F7F4FCE012B
:1034500001960E940612BE016F5F7F4F82E5B7CDD5
:1034600066EC78E0CE0101960E944913BE016F5FC1
:103470007F4FCE0107960E949C0F182FCE01019618
:103480000E940F12113009F040C00E947E1440913A
:10349000030150910401052E000C660B770B84E8A4
:1034A00094E00E94190D6CED76E087E393E00E94B2
:1034B0002F1310E087E393E00E944607892B29F041
:1034C00087E393E00E942407182F84E894E00E9489
:1034D000CA0C892B49F084E894E00E94E20C082E83
:1034E000000C990B0E94D507133721F76EEC76E09C
:1034F00087E393E00E942F1387E393E00E94240761
:1035000084E894E00E94030D5CCC61EC78E0CE018D
:1035100001960E944913BE016F5F7F4FCE0107964F
:103520000E949C0F182FCE0101960E940F1211309D
:1035300009F04BC06CEB77E087E393E00E942F1318
:1035400069E977E087E393E00E942F136EE877E064
:1035500087E393E00E942F1366E877E087E393E028
:103560000E942F136DE777E087E393E00E942F130B
:1035700062E777E087E393E00E942F1364E677E049
:1035800087E393E00E942F1368E577E087E393E0F9
:103590000E942F136EE477E087E393E00E942F13DD
:1035A00066E177E087E393E00E942F1369E077E01C
:1035B00087E393E00E942F136FEF76E087E393E0B9
:1035C0000E942F1364EF76E07CCB6BEB78E0CE01AA
:1035D00001960E944913BE016F5F7F4FCE0107968F
:1035E0000E949C0F182FCE0101960E940F121130DD
:1035F00009F0EAC069E878E087E393E00E94C40636
:103600006EE972E087E393E00E9441138DE290E05F
:103610000E94D50740910D0150E070E060E02AE083
:1036200087E393E00E9426126DE778E087E393E05A
:103630000E94C40660910C0187E393E00E94061388
:103640006FE678E087E393E00E94C40668E872E0E2
:1036500087E393E00E94181380918702811189C04B
:103660006FE578E087E393E00E94C40660910A0169
:1036700070910B0187E393E00E94721266E578E097
:1036800087E393E00E942F1368E278E087E393E0FA
:103690000E94C4064091020150E070E060E02AE020
:1036A00087E393E00E94261260E278E087E393E0EC
:1036B0000E94C4064091CF0150E070E060E02AE033
:1036C00087E393E00E94261267E178E087E393E0C6
:1036D0000E94C406609105017091060187E393E0A2
:1036E0000E9472126FE078E087E393E00E94C406C4
:1036F0008091CE010E94AC126CEF77E087E393E0FB
:103700000E94C40680910301909104010E94C1129D
:103710006CEE77E087E393E00E94C40663EC71E00F
:1037200087E393E00E94181363EE77E087E393E06A
:103730000E94C4068091CD010E94AC126BED77E02F
:1037400087E393E00E94C406809101010E94AC12BD
:1037500060ED77E087E393E00E94C4068091CC019E
:103760000E94AC126AEC77E087E393E00E94C40603
:10377000F9CD6FE478E087E393E00E94C40680917E
:103780000901853431F46AE478E087E393E00E942C
:10379000C406809109018F3431F466E478E087E350
:1037A00093E00E94C40668E378E087E393E00E9418
:1037B000C406609107017091080187E393E00E94BD
:1037C00072126FE278E05CCF66EB78E0CE01019692
:1037D0000E944913BE016F5F7F4FCE0107960E9482
:1037E0009C0F182FCE0101960E940F121130D9F4B0
:1037F00009891A890115110569F0015011096D85B2
:103800007E85A80180E093E00E94ED2BF801E05056
:10381000FD4F108280910501909106010E94AD0E2E
:103820000E94E20FCECA61EB78E0CE0101960E94C1
:103830004913BE016F5F7F4FCE0107960E949C0F18
:10384000182FCE0101960E940F121111BACA64EA14
:1038500078E037CA87E393E00E94A812CE0107966A
:103860000E94CC0FCE010D960E94CC0F89899A89B7
:1038700011E0892B31F0ED85FE8511E08081811109
:1038800010E062E579E0CE0101960E944913BE0185
:103890006F5F7F4FCE0107960E949C0F082FCE01CD
:1038A00001960E940F12013009F010CA6FE976E00C
:1038B00087E393E00E942F131092C2018091C2010E
:1038C0008111FDC987E393E00E9446071816190687
:1038D000ACF787E393E00E942407E82F8091C101B1
:1038E0008111A7C9EE0FFF0BE35EF64F859194910E
:1038F0009093C0018093BF01892B39F4E0E0F3E09D
:10390000119223E0E533F207D9F73092C101D6CF07
:103910001F920F920FB60F9211242F933F934F9344
:103920005F936F937F938F939F93AF93BF93EF9327
:10393000FF9387E393E00E946607FF91EF91BF91A9
:10394000AF919F918F917F916F915F914F913F9137
:103950002F910F900FBE0F901F9018951F920F92EE
:103960000FB60F9211242F938F939F93EF93FF9392
:10397000E0914703F09148038081E0914D03F0917D
:103980004E0382FD1BC09081809150038F5F8F7327
:1039900020915103821741F0E0915003F0E0E95C7F
:1039A000FC4F958F80935003FF91EF919F918F91E2
:1039B0002F910F900FBE0F901F9018958081F4CF1C
:1039C0001F920F920FB60F9211242F933F938F9354
:1039D0009F93AF93BF938091790290917A02A091C7
:1039E0007B02B0917C023091780226E0230F2D37C4
:1039F00058F50296A11DB11D20937802809379029B
:103A000090937A02A0937B02B0937C0280917D0216
:103A100090917E02A0917F02B09180020196A11D3B
:103A2000B11D80937D0290937E02A0937F02B0939C
:103A30008002BF91AF919F918F913F912F910F90F5
:103A40000FBE0F901F90189529E8230F0396A11D14
:103A5000B11DD2CF1F920F920FB60F9211242F9348
:103A60003F934F935F936F937F938F939F93AF9306
:103A7000BF93EF93FF938091B900887F803609F45C
:103A80004AC0F0F5883209F4A7C018F5803109F46E
:103A90009BC0B8F4882309F4F9C0883009F494C0B5
:103AA000FF91EF91BF91AF919F918F917F916F9116
:103AB0005F914F913F912F910F900FBE0F901F90EC
:103AC0001895883109F488C0803251F78093D40268
:103AD00014C0803409F49DC040F48033B9F38833B6
:103AE000F9F68093D40285ECB0C0803509F485C026
:103AF000883509F496C0883499F60E947713D0CFA0
:103B0000883909F48CC038F5883729F050F48836A4
:103B100011F0803729F683E08093D6021092770265
:103B200057C0883809F47BC0803919F0803809F013
:103B3000B7CF80917702803208F071C0E0917702B0
:103B400081E08E0F809377028091BB00F0E0E95A0C
:103B5000FD4F80833DC0803B39F0E0F4803A09F4AA
:103B600079C0883A09F09CCF84E08093D602109205
:103B7000560210925502E0918302F0918402099559
:103B80008091550281110FC081E0809355021092FF
:103B9000350209C0803C09F4A6CF883C09F4A3CFC4
:103BA000883B09F07DCFE091560281E08E0F809333
:103BB0005602F0E0EB5CFD4F80818093BB0090915A
:103BC00056028091550229C08091B1028093BB00BA
:103BD00085EC8093BC0064CF9091D3028091D20297
:103BE000981758F5E091D30281E08E0F8093D302AD
:103BF000F0E0EE54FD4F8081E9CFE091D30281E007
:103C00008E0F8093D3028091BB00F0E0EE54FD4F05
:103C100080839091D3028091D2029817C8F285E8F0
:103C2000D8CFE091D30281E08E0F8093D3028091B0
:103C3000BB00F0E0EE54FD4F80838091D5028111EE
:103C40005CCF81E08093B00284EA8093BC00109244
:103C5000D60226CF85EC8093BC001092D6028091CC
:103C60007702803230F4E0917702F0E0E95AFD4FBC
:103C700010826091770270E0E0918102F0918202FF
:103C800087E592E00995109277020ACF1092D4024C
:103C900034CF1F920F920FB60F9211242F933F93A0
:103CA0004F935F936F937F938F939F93AF93BF9344
:103CB000EF93FF93E0919C02F0919D020995FF9193
:103CC000EF91BF91AF919F918F917F916F915F9194
:103CD0004F913F912F910F900FBE0F901F9018950D
:103CE0001F920F920FB60F9211242F933F934F9371
:103CF0005F936F937F938F939F93AF93BF93EF9354
:103D0000FF93E0911202F0911302309749F0A685DB
:103D1000B7858585968D91FF14C09C918923A1F468
:103D2000FF91EF91BF91AF919F918F917F916F9193
:103D30005F914F913F912F910F900FBE0F901F9069
:103D400018959C91892361F7A389B4899C918589F1
:103D5000809589238C93868997890197F1F7608DE7
:103D6000718DA685B785558538E020E0CB01019798
:103D7000F1F7822F90E095958795282F4C91452358
:103D800009F02068315091F7868D81FD2095809152
:103D9000100290E001968F73992730911102381725
:103DA00099F0A0911002B0E0A053BE4F2C938093E5
:103DB0001002828D938D0197F1F7A389B4898C91BC
:103DC0009589892B8C93ACCF868D8160868FF1CFBE
:103DD00081E080933104109268041092670410927D
:103DE00072041092710410923C0410923B041092E1
:103DF000700410926F0410922104109260041092CB
:103E00005F048091320490913304A0913404B09106
:103E1000350480935B0490935C04A0935D04B0939D
:103E20005E0410925A040895E7E3F3E013821282CD
:103E300088EE93E0A0E0B0E084839583A683B78307
:103E400022E731E03183208325EC30E03587248779
:103E500024EC30E03787268720EC30E0318B208B54
:103E600021EC30E0338B228B22EC30E0358B248B3D
:103E700026EC30E0378B268B118E128E138E148E2B
:103E8000E4EDF3E01382128284839583A683B783E3
:103E900084E891E091838083109268041092670413
:103EA0001092700410926F041092720410927104B8
:103EB00010923C0410923B04109236041092370486
:103EC0001092550410925404109257041092560404
:103ED0001092600410925F04109232041092330426
:103EE000109234041092350410925B0410925C041A
:103EF00010925D0410925E0410925A0446E067E04E
:103F000083EA94E00E94590949E068E084E894E07B
:103F10000E945909E3E7F4E01382128286E991E0F6
:103F20009183808380E8818780E4828782E0878331
:103F30008CE386831086148213861486108A178673
:103F400015820895789484B5826084BD84B58160BB
:103F500084BD85B5826085BD85B5816085BD809154
:103F60006E00816080936E001092810080918100CC
:103F700082608093810080918100816080938100C4
:103F8000809180008160809380008091B100846086
:103F90008093B1008091B00081608093B0008091E7
:103FA0007A00846080937A0080917A0082608093A6
:103FB0007A0080917A008E7F80937A0080917A00D7
:103FC000806880937A001092C100E0914703F091DD
:103FD000480382E08083E0914303F0914403108220
:103FE000E0914503F091460380E1808310924F03F6
:103FF000E0914B03F0914C0386E08083E09149030C
:10400000F0914A03808180618083E0914903F091BF
:104010004A03808188608083E0914903F0914A03DC
:10402000808180688083E0914903F0914A03808118
:104030008F7D808385E18093810487E08093800475
:1040400010928602109285021092DD021092FF02F9
:104050000E94490A8BEB96E090938402809383023E
:104060008CEB96E090938202809381028091B9005C
:104070008C7F8093B90081E08093B80080917B04AD
:104080008823F1F061E00E94280961E080917B04BF
:104090000E944C0861E070E080E090E00E94E3093B
:1040A00060E080917B040E944C086AE070E080E050
:1040B00090E00E94E30961E080917B040E944C083B
:1040C0006EEA83E794E00E940E0C60E283E794E0DE
:1040D0000E940E0C60E083E794E00E940E0C68EAF8
:1040E00083E794E00E940E0C6FE383E794E00E9464
:1040F0000E0C63ED83E794E00E940E0C60E083E712
:1041000094E00E940E0C60E483E794E00E940E0CA1
:1041100061EA83E794E00E940E0C68EC83E794E088
:104120000E940E0C6AED83E794E00E940E0C62E19F
:1041300083E794E00E940E0C61E883E794E00E941C
:104140000E0C80917A046FE9813009F06FEC83E7FF
:1041500094E00E940E0C69ED83E794E00E940E0C3F
:1041600080917A0462E2813009F061EF83E794E0A4
:104170000E940E0C6BED83E794E00E940E0C60E44D
:1041800083E794E00E940E0C64EA83E794E00E94C7
:104190000E0C66EA83E794E00E940E0C65ED83E75F
:1041A00094E00E940E0C60E883E794E00E940E0CFD
:1041B0006DE883E794E00E940E0C80917A0460E140
:1041C000813009F064E183E794E00E940E0C6FEA0D
:1041D00083E794E00E940E0C0E946A0E63EE83E770
:1041E00094E00E940E0C0E946A0E65E37CE083E777
:1041F00094E00E94C40662E080E00E94280C65E220
:104200007CE083E794E00E94C40660EA7FE080E0FF
:1042100090E00E94E3090E946A0E61E082E00E9441
:10422000280961E085E00E94280960E082E00E94A0
:104230004C0861E083E00E94280960E083E00E946E
:104240004C081092800080E18093810081E080938F
:104250009A028FB780939B02F89480E391E0909349
:1042600099028093980290938700809386008091B2
:104270009B028FBF80918100887F80938100809115
:10428000810090919A02892B8093810067EC7BE0FA
:1042900087E393E00E942F1367EB7BE083E794E0D2
:1042A0000E942F1361E080E10E944C080E94150AD1
:1042B0004B015C018092AC029092AD02A092AE02E2
:1042C000B092AF02CFEF48EE442E43E0542E612C63
:1042D000712C0E94150A6B017C01C818D908EA08E4
:1042E000FB08C092A802D092A902E092AA02F09222
:1042F000AB0287E393E00E944607181619060CF4F8
:1043000065C2C701B601A30192010E94C5298C2F85
:104310000C2E000C990BAA0BBB0B281739074A0768
:104320005B0779F0DC2FCF5F8C2F0C2E000C990BE4
:10433000C0960E94D50761E36D0F83E794E00E9469
:104340000B0F28E8C21623E1D206E104F1040CF2B7
:1043500060E080E10E944C0887E393E00E94A8128D
:104360000E947E140E946A0E6EE972E083E794E078
:104370000E9441136DE283E794E00E940B0F40918D
:104380000D0150E070E060E02AE083E794E00E94D5
:1043900026126CE17CE083E794E00E94C406609101
:1043A0000C0183E794E00E94061363E17CE083E75D
:1043B00094E00E94C40668E872E083E794E00E94FB
:1043C00018138091870281110CC263E07CE083E7BF
:1043D00094E00E94C40660910A0170910B0183E78A
:1043E00094E00E9472126EEF7BE083E794E00E94FB
:1043F0002F1380910501909106010E94AD0E40910E
:10440000030150910401052E000C660B770B84E824
:1044100094E00E94190D0E94150A6093AC027093FB
:10442000AD028093AE029093AF0284E6882E912C69
:10443000A12CB12C94E6C92ED12C20E0222E20E014
:10444000322E02E010E0EE24E394F12C0E94150AD3
:104450004090AC025090AD026090AE027090AF02FE
:104460009B01AC01241935094609570929013A0174
:104470004092A8025092A9026092AA027092AB02E6
:1044800084E894E00E94CA0C892B09F444C484E8AF
:1044900094E00E94E20CC82F87FD17C0809137047A
:1044A000882329F06C2F87E393E00E94BD0680915A
:1044B0005A04853008F0C0C1C43219F48F5F80936C
:1044C0005A0483E590E00E94D5070E94150A609384
:1044D000AC027093AD028093AE029093AF028091D4
:1044E0003104811108C080912104813009F00FC48A
:1044F000F2E0F093A7028091A6028130E1F480916E
:10450000A7029091A5029817B1F0823009F419C45E
:10451000833009F41DC4813051F466E080E00E94CC
:10452000280C61EB7CE083E794E00E94C406809154
:10453000A7028093A50280913104813009F03AC12D
:10454000109231041092210460913204709133046E
:1045500080913404909135040E94D21263E074E09B
:1045600087E393E00E9418136AE074E087E393E026
:104570000E9441136091140487E393E00E940613A4
:1045800065E174E087E393E00E94411360912004A9
:1045900087E393E00E940613809121040E94AC12ED
:1045A00065E274E087E393E00E94181360913D0494
:1045B00070913E0480913F04909140040E94D21279
:1045C00060914104709142048091430490914404AD
:1045D0000E94D21265E474E087E393E00E9418130E
:1045E0008091A602813009F058C00E946A0E60E0F6
:1045F00080E00E94280C68E87CE083E794E00E9459
:10460000C40663E074E083E794E00E94411360E035
:1046100082E10E94280C65E87CE083E794E00E9438
:10462000C40661E080E00E94280C6BE77CE083E731
:1046300094E00E94C4066AE074E083E794E00E947C
:1046400041136091140483E794E00E94BD0662E088
:1046500080E00E94280C60E77CE083E794E00E9401
:10466000C40665E174E083E794E00E944113609121
:10467000200483E794E00E94BD0663E080E00E948E
:10468000280C66E67CE083E794E00E94C40665E2BD
:1046900074E083E794E00E94411386E0E3E0F4E0F5
:1046A000ADE2B1E001900D928A95E1F787E0EAE092
:1046B000F4E0A4E3B1E001900D928A95E1F78091D6
:1046C000140480933B0188E0E5E1F4E0ADE3B1E060
:1046D00001900D928A95E1F7809120048093450125
:1046E000109236031092350363E070E087EA91E0A0
:1046F0000E94810F65E070E08EE992E00E94810FD8
:1047000063E070E087EA91E00E94810F66E070E06C
:1047100083E094E00E94810F8DE20E94AB0667E087
:1047200070E08AE094E00E94810F809114040E945E
:10473000AB068DE20E94AB0668E070E085E194E094
:104740000E94810F809120040E94AB068DE20E949E
:10475000AB0680E00E94AB0687E393E00E94DA0795
:1047600084E894E00E94030D6BEA71E087E393E034
:104770000E9418130E94E20F0E94150A6093AC0277
:104780007093AD028093AE029093AF028091A60227
:10479000813051F460E082E10E94280C63E67CE005
:1047A00083E794E00E94C40665EB71E087E393E041
:1047B0000E9418132114310409F448CE0E945207B4
:1047C000882309F443CE0E94000040CE87E393E0A3
:1047D0000E9424078D36910509F093CD0E9475152E
:1047E000BFCD67EF7BE083E794E00E94C406809131
:1047F0000901853431F462EF7BE083E794E00E94A5
:10480000C406809109018F3431F46EEE7BE083E7BA
:1048100094E00E94C40660EE7BE083E794E00E948F
:10482000C406609107017091080183E794E00E943B
:10483000721267ED7BE0D9CDCA3209F4D9C18091FB
:10484000670490916804CC32C9F0C43209F0D9C130
:10485000892B09F03ACEF0926804E0926704109236
:10486000700410926F0480913604882309F42DCED1
:1048700064E287E393E00E94BD0627CE019729F505
:1048800080916F04909170049C012F5F3F4F309393
:10489000700420936F0487599B4FFC01108261EADA
:1048A00071E089E694E00E94DD2B892B89F58091E7
:1048B0003604882331F069E57CE087E393E00E94C9
:1048C0002F131093680400936704809167049091FC
:1048D0006804029779F48091710490917204843095
:1048E000910509F426C1CCF48130910559F1029764
:1048F00009F417C11092700410926F048091710432
:104900009091720401969093720480937104DDCDAE
:104910001092680410926704D8CF8730910509F48B
:104920002AC18930910509F436C1069719F780919B
:10493000E60390912104992309F403C161E00E94E8
:104940004C08D8CFE0916F04F0917004E052FC4F16
:1049500013A280912104882369F290910704905357
:104960002AE0809108048053929F800D1124809347
:104970002D04909105049053809106048053929FDA
:10498000800D112480932E0470900304FDE2C3E097
:10499000D4E07F1202C0C4E0D4E0CE010E94E3263E
:1049A0009B01AC01A4E6B0E00E948928FE01499178
:1049B000242F042E000C330B205331092A303105EB
:1049C000A8F34E3241F52181022E000C330B205307
:1049D00031092A303105F8F4AAE0A29FA001A39F73
:1049E000500D11249A01550F440B550B620F731F84
:1049F000841F951F2281022E000C330B2053310996
:104A00002A30310540F4032E000C440B550B620F85
:104A1000731F841F951F2DE2721207C09095809519
:104A2000709561957F4F8F4F9F4F609332047093C5
:104A30003304809334049093350420915B043091C7
:104A40005C04621B730B7093600460935F0480913D
:104A50003604882361F062E57CE087E393E00E94FE
:104A6000C40663E074E087E393E00E94181380912A
:104A70003804811110C080915F0490916004B601E8
:104A80000E947B2980912F04909130046817790748
:104A900010F00E94E81E80913804813009F02ACF7E
:104AA000809139048E3471F420912D0480913A0460
:104AB000821740F490E004962817190609F014F4C0
:104AC0000E94E81E80913904853489F420912D04D8
:104AD00080913A04821758F490E00496281719063A
:104AE00009F02CF480912E0480FF0E94E81E809132
:104AF00039048F3409F0FECE20912D0480913A04C0
:104B0000821708F0F7CE90E004962817190611F0E6
:104B10000CF0F0CE80912E0480FFECCE0E94E81EB7
:104B2000E9CEE0916F04F0917004E052FC4F12A6C0
:104B3000E1CEE0916F04F0917004E052FC4F15AAB1
:104B4000D9CE0E94230861E068278091E6030E9485
:104B50004C0880913604882309F4CCCE69E47CE0CB
:104B600087E393E00E94C40662E274E087E393E087
:104B70000E941813BFCEE0916F04F0917004EE5DB7
:104B8000FB4F108282E294E00E94C52690933C0481
:104B900080933B04AFCEE0916F04F0917004EB5D25
:104BA000FB4F108285E294E00E94E3269B01AC015A
:104BB00020933D0430933E0440933F0450934004BF
:104BC000A8E4B1E00E948928A50194010E94C529AA
:104BD000CA01B90160934104709342048093430475
:104BE000909344042AE045E454E00E941A2782CEC0
:104BF000109268041092670410927204109271046B
:104C000064CC8130910581F480916F04909170049F
:104C10009C012F5F3F4F3093700420936F0487599E
:104C20009B4FFC01C08351CC029709F04ECCE09120
:104C30007104F09172043197E930F10508F045CC28
:104C4000EC5DF94D0C94E4292D264126512654267D
:104C5000642667266B266522792680916F049091E1
:104C60007004863091050CF030CC9C012F5F3F4FD3
:104C70003093700420936F0480529C4FFC01C3A3B7
:104C800024CC80916F04909170049C012F5F3F4F62
:104C90003093700420936F0480529C4FFC01C2A794
:104CA00014CCC093140411CC80916F0490917004C3
:104CB0009C012F5F3F4F3093700420936F0480520C
:104CC0009C4FFC01C5AB01CCC0932004FECBC0536C
:104CD000C0932104FACB80916F04909170049C01E1
:104CE0002F5F3F4F3093700420936F048E5D9B4F76
:104CF00098CF80916F04909170049C012F5F3F4F7B
:104D00003093700420936F048B5D9B4F8ACF23E018
:104D10002093A702F0CB31ED431637E05306610430
:104D200071040CF4E8CB0E94150A6093AC027093F6
:104D3000AD028093AE029093AF0241E04093A70290
:104D4000DACB66E080E00E94280C61EA7CE0EBCBE5
:104D500066E080E00E94280C61E97CE0E4CBCF9320
:104D6000DF93C0E6D1E0D0938504C093840484E847
:104D700094E00E94030DD093A404C093A30483EA9B
:104D800094E0DF91CF910C94030DFC0188279927C3
:104D9000E89421912032E9F3293010F02E30C8F345
:104DA0002B3241F02D3239F4689404C00E943E2722
:104DB000820F911D219120532A30C0F31EF490954B
:104DC00081959F4F08951F93FC0199278827BC0167
:104DD000E89411911032E9F3193010F01E30C8F345
:104DE0001B3251F01D3249F4689406C00E942927F5
:104DF000610F711D811D911D119110531A30B0F377
:104E00003EF490958095709561957F4F8F4F9F4FA1
:104E10001F910895FB01DC0105900D920020E1F740
:104E20000895FC0105900020E9F7809590958E0F7C
:104E30009F1F0895BB272A3051F4992342F4BDE205
:104E400090958095709561957F4F8F4F9F4F0C94F3
:104E50004727592F482F372F262F660F771F881F78
:104E6000991F660F771F881F991F620F731F841F7A
:104E7000951F660F771F881F991F08957AE0979FE7
:104E8000902D879F802D910D11240895BB27FA0145
:104E9000A62F6217710581059105330B30FB66F073
:104EA000AA27660F771F881F991FAA1FA21710F045
:104EB000A21B63953850A9F7A05DAA3308F0A95D3D
:104EC000A19336F7B111B1931082CA010C946827EF
:104ED000DC01FC01672F71917723E1F7329704C061
:104EE0007C916D9370836291AE17BF07C8F30895EC
:104EF000E89409C097FB3EF4909580957095619574
:104F00007F4F8F4F9F4F9923A9F0F92F96E9BB2729
:104F10009395F695879577956795B795F111F8CFA5
:104F2000FAF4BB0F11F460FF1BC06F5F7F4F8F4F10
:104F30009F4F16C0882311F096E911C0772321F006
:104F40009EE8872F762F05C0662371F096E8862F9E
:104F500070E060E02AF09A95660F771F881FDAF7F5
:104F6000880F9695879597F908950E94C8270C9405
:104F700039280E942B2838F00E94322820F09523EF
:104F800011F00C9422280C94282811240C946D28DC
:104F90000E944A2870F3959FC1F3950F50E0551F6A
:104FA000629FF001729FBB27F00DB11D639FAA277E
:104FB000F00DB11DAA1F649F6627B00DA11D661FCD
:104FC000829F2227B00DA11D621F739FB00DA11DEE
:104FD000621F839FA00D611D221F749F3327A00DA8
:104FE000611D231F849F600D211D822F762F6A2F44
:104FF00011249F5750409AF0F1F088234AF0EE0FA9
:10500000FF1FBB1F661F771F881F91505040A9F7D5
:105010009E3F510580F00C9422280C946D285F3F30
:10502000E4F3983ED4F3869577956795B795F79511
:10503000E7959F5FC1F7FE2B880F911D9695879589
:1050400097F9089597F99F6780E870E060E0089508
:105050009FEF80EC089500240A9416161706180690
:105060000906089500240A9412161306140605066C
:105070000895092E0394000C11F4882352F0BB0FFD
:1050800040F4BF2B11F460FF04C06F5F7F4F8F4F60
:105090009F4F089557FD9058440F551F59F05F3F9B
:1050A00071F04795880F97FB991F61F09F3F79F04A
:1050B00087950895121613061406551FF2CF4695CC
:1050C000F1DF08C0161617061806991FF1CF86954E
:1050D0007105610508940895E894BB276627772732
:1050E000CB0197F90895F999FECF92BD81BDF89A49
:1050F000992780B50895262FF999FECF1FBA92BD42
:1051000081BD20BD0FB6F894FA9AF99A0FBE0196A8
:1051100008950E94CB28A59F900DB49F900DA49F49
:10512000800D911D112408952F923F924F925F920E
:105130006F927F928F929F92AF92BF92CF92DF92A7
:10514000EF92FF920F931F93CF93DF93CDB7DEB70C
:10515000CA1BDB0B0FB6F894DEBF0FBECDBF0994A0
:105160002A88398848885F846E847D848C849B84F7
:10517000AA84B984C884DF80EE80FD800C811B8105
:10518000AA81B981CE0FD11D0FB6F894DEBF0FBE34
:10519000CDBFED010895A29FB001B39FC001A39FB1
:1051A000700D811D1124911DB29F700D811D112460
:1051B000911D08950E94EE280C9439280E943228EF
:1051C00058F00E942B2840F029F45F3F29F00C94FE
:1051D000222851110C946D280C9428280E944A28EA
:1051E00068F39923B1F3552391F3951B550BBB2716
:1051F000AA2762177307840738F09F5F5F4F220F5B
:10520000331F441FAA1FA9F335D00E2E3AF0E0E851
:1052100032D091505040E695001CCAF72BD0FE2F9B
:1052200029D0660F771F881FBB1F2617370748072F
:10523000AB07B0E809F0BB0B802DBF01FF279358E7
:105240005F4F3AF09E3F510578F00C9422280C9461
:105250006D285F3FE4F3983ED4F386957795679584
:10526000B795F7959F5FC9F7880F911D969587951C
:1052700097F90895E1E0660F771F881FBB1F62173B
:1052800073078407BA0720F0621B730B840BBA0BF9
:10529000EE1F88F7E09508950E94522888F09F57E6
:1052A00098F0B92F9927B751B0F0E1F0660F771F4A
:1052B000881F991F1AF0BA95C9F714C0B13091F040
:1052C0000E946C28B1E008950C946C28672F782F09
:1052D0008827B85F39F0B93FCCF386957795679505
:1052E000B395D9F73EF490958095709561957F4F71
:1052F0008F4F9F4F0895AA1BBB1B51E107C0AA1FE8
:10530000BB1FA617B70710F0A61BB70B881F991F66
:105310005A95A9F780959095BC01CD01089597FB0A
:10532000072E16F4009407D077FD09D00E947B2940
:1053300007FC05D03EF4909581959F4F0895709598
:1053400061957F4F0895A1E21A2EAA1BBB1BFD0198
:105350000DC0AA1FBB1FEE1FFF1FA217B307E40754
:10536000F50720F0A21BB30BE40BF50B661F771FAC
:10537000881F991F1A9469F760957095809590958C
:105380009B01AC01BD01CF010895052E97FB1EF4D2
:1053900000940E94DC2957FD07D00E94A32907FC36
:1053A00003D04EF40C94DC2950954095309521950E
:1053B0003F4F4F4F5F4F0895909580957095619541
:1053C0007F4F8F4F9F4F0895EE0FFF1F0590F49171
:1053D000E02D09940F931F93CF93DF9382309105B3
:1053E00010F482E090E0E091C404F091C50430E054
:1053F00020E0B0E0A0E0309799F42115310509F4E0
:105400004AC0281B390B24303105D8F58A819B818D
:105410006115710589F1FB0193838283FE0111C03F
:10542000408151810281138148175907E0F04817E4
:10543000590799F4109761F012960C9312971396EE
:105440001C933296CF01DF91CF911F910F91089558
:105450000093C4041093C504F4CF2115310551F015
:105460004217530738F0A901DB019A01BD01DF01A2
:10547000F801C1CFEF01F9CF9093C5048093C40424
:10548000CDCFFE01E20FF31F81939193225031099A
:1054900039832883D7CF2091C2043091C304232BB2
:1054A00041F420915801309159013093C304209365
:1054B000C20420915601309157012115310541F464
:1054C0002DB73EB740915A0150915B01241B350B1B
:1054D000E091C204F091C304E217F307A0F42E1B7D
:1054E0003F0B2817390778F0AC014E5F5F4F241748
:1054F000350748F04E0F5F1F5093C3044093C2041A
:10550000819391939FCFF0E0E0E09CCFCF93DF9326
:105510000097E9F0FC01329713821282A091C40433
:10552000B091C504ED0130E020E01097A1F4208196
:105530003181820F931F2091C2043091C304281738
:10554000390709F061C0F093C304E093C204DF910E
:10555000CF910895EA01CE17DF07E8F54A815B8114
:105560009E0141155105B1F7E901FB83EA83499199
:105570005991C40FD51FEC17FD0761F4808191810B
:105580000296840F951FE901998388838281938114
:105590009B838A83F0E0E0E012968D919C911397B3
:1055A0000097B9F52D913C911197CD010296820F8C
:1055B000931F2091C2043091C3042817390739F68C
:1055C000309751F51092C5041092C404B093C304EF
:1055D000A093C204BCCFD383C28340815181840F86
:1055E000951FC817D90761F44E5F5F4F8881998175
:1055F000480F591F518340838A819B819383828303
:105600002115310509F0B0CFF093C504E093C4042F
:105610009ECFFD01DC01C0CF13821282D7CFB0E054
:10562000A0E0E5E1FBE20C9496288C01009751F490
:10563000CB010E94EA298C01C801CDB7DEB7E0E1B9
:105640000C94B228FC01E60FF71F9C01225031098F
:10565000E217F30708F49DC0D901CD91DC911197B1
:10566000C617D70798F0C530D10530F3CE0104979F
:105670008617970708F3C61BD70B2297C193D193C0
:105680006D937C93CF010E94862AD6CF5B01AC1A22
:10569000BD0A4C018C0E9D1EA091C404B091C5049E
:1056A000512C412CF12CE12C109731F58091C20442
:1056B0009091C3048815990509F05CC046165706F9
:1056C00008F058C08091560190915701009741F41D
:1056D0008DB79EB740915A0150915B01841B950B89
:1056E000E817F90708F055C0F093C304E093C2042B
:1056F000F90171836083A0CF8D919C9111971296CF
:105700006C90129713967C901397A815B90559F5CC
:105710006C0142E0C40ED11CCA14DB0420F1AC01C0
:105720004A195B09DA011296159780F0628273823A
:1057300051834083D9016D937C93E114F10471F09E
:10574000D7011396FC93EE93129776CF22968C0F87
:105750009D1FF90191838083F301EFCFF093C5047E
:10576000E093C40469CF4816590608F42C017D0162
:10577000D3019ACFCB010E94EA297C01009749F01E
:10578000AE01B8010E94D42BC8010E94862A87016D
:1057900053CF10E000E050CF9111089581568A5107
:1057A00008F4805285580895FB01DC0102C0019085
:1057B0000D9241505040D8F70895FB01DC018D91C6
:1057C000019080190110D9F3990B0895FB01DC01B8
:1057D00001900D920020E1F70895FB01DC0141509A
:1057E000504048F001900D920020C9F701C01D9271
:1057F00041505040E0F7089516E0C0E8D6E004C0FC
:10580000FE010E94E4292196C138D107C9F7F89416
:02581000FFCFC8
:1058120048010180255E010A004E14003E0A8C6890
:105822008E9E9040608C688E9E904074AE92888A64
:10583200624062AE92888A64406303F02F31353051
:1058420034353268343835312E32304E2F303032E2
:1058520032302E3932453E373320416E74686F6ED6
:105862007920202020200000C604800000000000D3
:105872006E0CE806C10DBA06CA0CE20C560C00000A
:1058820000008807E8061507DA07460724073807E5
:1058920000000000C50B980BC10DBA06910B7E0BE0
:1058A2006F0B000000000B0FE806C10D210A0D0A64
:1058B2000047504747410020202000545820656E81
:0E58C20061626C6500545820446F6E650000F2
:00000001FF
